:020000040800F2
:1000000000000120D5170008470300084903000835
:100010004B0300084D0300084F03000800000000D8
:100020000000000000000000000000005103000874
:1000300053030008000000005503000857030008A0
:10004000251800082518000825180008251800089C
:10005000251800082518000825180008251800088C
:10006000251800082518000825180008251800087C
:10007000251800082518000825180008251800086C
:10008000251800082518000825180008251800085C
:10009000251800082518000825180008251800084C
:1000A000251800082518000825180008251800083C
:1000B000251800082518000825180008251800082C
:1000C000251800082518000825180008251800081C
:1000D000251800082518000825180008251800080C
:1000E00025180008251800082518000825180008FC
:1000F00025180008251800082518000825180008EC
:100100002518000800000000000000002518000865
:1001100025180008251800082518000825180008CB
:1001200025180008251800082518000825180008BB
:100130002518000825180008000000000000000035
:1001400025180008251800082518000800000000E0
:10015000000000000000000000000000000000009F
:10016000251800082518000825180008251800087B
:10017000251800082518000825180008251800086B
:1001800025180008251800080000000000000000E5
:040190002518000826
:1001940010B5054C237833B9044B13B10448AFF3BD
:1001A40000800123237010BD0C000020000000001B
:1001B4008018000808B5034B1BB103490348AFF38B
:1001C400008008BD00000000100000208018000816
:1001D40010B58AB0002405940694079408940994F1
:1001E400214B5A6942F400225A615A6902F40022EE
:1001F4000192019A5A6942F480025A615A6902F4DE
:1002040080020292029A5A6942F400325A615A698F
:1002140002F400320392039A5A6942F480225A612A
:100224005B6903F480230493049B224620214FF04E
:10023400904001F05FFA4FF4005305934FF4041318
:100244000693079405A9094801F064F9202305934E
:10025400012306930794089405A94FF0904001F0F8
:1002640059F90AB010BD00BF001002400008004850
:1002740072B6FEE708B50B480B4B03604FF4164308
:10028400436000238360C36003610C224261836185
:10029400C3610362436200F0E0FA00B908BDFFF7EE
:1002A400E7FF00BF280000200044004000B5A7B0CD
:1002B400282200211CA801F0D9FA002117911891D5
:1002C40019911A911B91582201A801F0CFFA022327
:1002D4001C9301221F921022209222934FF4004378
:1002E40023934FF4E01324931CA800F031FBC0B90E
:1002F4000F23179302211891002319934FF480625E
:100304001A921B9317A800F07FFE60B90223019391
:100314000023049301A800F07DFF30B927B05DF8F5
:1003240004FBFFF7A5FFFFF7A3FFFFF7A1FF08B545
:1003340000F0EAFAFFF7BAFFFFF74AFFFFF79AFF68
:10034400FEE7FEE7FEE7FEE7FEE7FEE770477047DD
:10035400704708B500F0EAFA08BD000000B583B0A4
:100364000C4B9A6942F001029A619A6902F0010207
:100374000092009ADA6942F08052DA61DB6903F094
:1003840080530193019B072001F0BAF903B05DF893
:1003940004FB00BF0010024000B589B000230393A2
:1003A40004930593069307930268134B9A4202D071
:1003B40009B05DF804FB03F5E633DA6942F4003270
:1003C400DA61DA6902F400320192019A5A6942F45C
:1003D40000325A615B6903F400330293029B0C23DD
:1003E4000393022304930723079303A94FF0904038
:1003F40001F090F8DCE700BF0044004010B504466B
:1004040083680269134342691343C2691343016851
:100414000868864A024013430B602268536823F439
:100424004053E1680B435360A269236A1A4321686D
:100434008B6823F4306313438B6023687C4A9342B4
:100444000DD07C4A93421CD07B4A93423AD07B4ADB
:1004540093424AD07A4A93425AD010231FE0794BF0
:100464001B6B03F00303032B09D8DFE803F002043A
:100474000664012313E0042311E008230FE0102392
:100484000DE0704B1B6B03F44033B3F5003F54D0C5
:1004940013D8002B53D0B3F5803F52D10423E06925
:1004A400B0F5004F69D0082B00F2B980DFE803F003
:1004B40092A890B7ABB7B7B7AE00B3F5403F42D1FF
:1004C4000223ECE75F4B1B6B03F44023B3F5002FCF
:1004D4003BD005D8DBB3B3F5802F3AD10423DEE754
:1004E400B3F5402F37D10223D9E7564B1B6B03F4E6
:1004F4004013B3F5001F30D005D883B3B3F5801F84
:100504002FD10423CBE7B3F5401F2CD10223C6E738
:100514004C4B1B6B03F44003B3F5000F25D005D8F7
:100524002BB3B3F5800F24D10423B8E7B3F5400F00
:1005340021D10223B3E70223B1E70823AFE7002365
:10054400ADE71023ABE71023A9E70823A7E70023AF
:10055400A5E71023A3E71023A1E708239FE70023BF
:100564009DE710239BE7102399E7082397E70023CF
:1005740095E7102393E7102391E7082B49D8DFE888
:1005840003F0051F254822484848090000F016FEDC
:10059400002840D06268530803EB4000B0FBF2F03F
:1005A40080B2A0F110024FF6EF739A4235D820F0D2
:1005B4000F03C0F3420018432368D86000201BE0F7
:1005C40000F012FEE4E700F0E7FCE1E71E48E1E793
:1005D4001D4802E000F0F2FD18B3636800EB53001D
:1005E400B0FBF3F080B2A0F110024FF6EF739A4221
:1005F40019D82368D860002000236366A36610BD61
:1006040000F0F2FDE8E700F0C7FCE5E74FF4004036
:10061400E3E70120F0E70020EEE70120ECE701200A
:10062400EAE70020E8E70120E6E700BFF369FFEF0F
:10063400003801400044004000480040004C0040A5
:10064400005000400010024000127A00436A13F088
:10065400010F06D00268536823F40033816A0B4308
:100664005360436A13F0020F06D00268536823F400
:100674008033C16A0B435360436A13F0040F06D0FE
:100684000268536823F48023016B0B435360436A6D
:1006940013F0080F06D00268536823F40043416B3B
:1006A4000B435360436A13F0100F06D0026893683B
:1006B40023F48053816B0B439360436A13F0200F40
:1006C40006D00268936823F40053C16B0B43936014
:1006D400436A13F0400F0AD00268536823F480136E
:1006E400016C0B435360036CB3F5801F0BD0436A5A
:1006F40013F0800F06D00268536823F40023816C42
:100704000B43536070470268536823F4C003416C81
:100714000B435360EBE72DE9F84305460F461646B5
:100724009946DDF820802C68E46937EA04030CBF9D
:100734004FF0010C4FF0000CB44553D1B8F1FF3F1A
:10074400F1D000F0FFF8A0EB090040452DD8B8F136
:10075400000F2AD02B681A6812F0040FE3D0DA696C
:1007640012F4006FDFD04FF400621A622A6852E874
:10077400003F23F4D07342E800310029F6D12A68FF
:1007840002F1080353E8003F23F00103083242E872
:1007940000310029F3D12023AB67EB67C5F8803023
:1007A400002385F8743003201DE02A6852E8003FD6
:1007B40023F4D07342E800310029F6D12A6802F10B
:1007C400080353E8003F23F00103083242E80031F4
:1007D4000029F3D12023AB67EB67002385F874303D
:1007E400032000E00020BDE8F88330B583B0044660
:1007F4000023C0F8803000F0A5F80546226812688E
:1008040012F0080F0DD123681B6813F0040F16D1E2
:100814002023A367E3670020206684F8740003B0F4
:1008240030BD6FF07E430093034600224FF4001165
:100834002046FFF770FF0028E5D00320EFE76FF0B4
:100844007E4300932B4600224FF480012046FFF79D
:1008540062FF0028DCD00320E1E768B310B504464A
:10086400836F03B32423A3672268136823F001036F
:1008740013602046FFF7C2FD012813D0636ABBB999
:100884002268536823F4904353602268936823F0EA
:100894002A0393602268136843F00103136020461F
:1008A400FFF7A3FF10BD80F87430FFF775FDD9E79B
:1008B4002046FFF7CBFEE3E70120704710B504465E
:1008C4000E4B18784FF47A73B3FBF0F30C4A1068AC
:1008D400B0FBF3F000F05EFF68B90F2C01D90120E2
:1008E4000AE0002221464FF0FF3000F01BFF054BC9
:1008F4001C60002000E0012010BD00BF00000020AB
:10090400080000200400002008B5074A136843F0DB
:1009140010031360032000F0F3FE0020FFF7CEFF66
:10092400FFF71CFD002008BD00200240034A1168A7
:10093400034B1B780B441360704700BFAC000020CE
:1009440000000020014B1868704700BFAC00002075
:10095400002800F00A8370B582B00446036813F0DF
:10096400010F3DD0B34B5B6803F00C03042B20D084
:10097400B04B5B6803F00C03082B13D06368B3F52A
:10098400803F6AD0002B40F08D8003F1804303F553
:1009940004331A6822F480321A601A6822F480221E
:1009A4001A605FE0A34B5B6803F4C033B3F5803F88
:1009B400E4D14FF4003393FAA3F39E4B19684FF438
:1009C400003393FAA3F3B3FA83F303F01F03012272
:1009D40002FA03F30B4203D06368002B00F0C782D2
:1009E400236813F0020F00F0C080924B5B6813F091
:1009F4000C0F00F097808F4B5B6803F00C03082BFF
:100A040000F08880E368002B00F0ED80012292FA68
:100A1400A2F3B3FA83F303F1845303F584139B0025
:100A24001A60FFF78FFF0546022393FAA3F3814B65
:100A34001968022393FAA3F3B3FA83F303F01F03B1
:100A4400012202FA03F30B4240F0BE80FFF77AFF63
:100A5400401B0228E8D9032092E2764A136843F443
:100A6400803313606368002B36D0FFF76BFF0546B5
:100A74004FF4003393FAA3F36E4B19684FF4003329
:100A840093FAA3F3B3FA83F303F01F03012202FAE8
:100A940003F30B42A4D1FFF755FF401B6428E7D9A9
:100AA40003206DE2B3F5A02F09D0624B1A6822F43B
:100AB40080321A601A6822F480221A60D2E703F1A5
:100AC4008043A3F53C331A6842F480221A601A6802
:100AD40042F480321A60C5E7FFF734FF05464FF44D
:100AE400003393FAA3F3534B19684FF4003393FA8A
:100AF400A3F3B3FA83F303F01F03012202FA03F30F
:100B04000B423FF46DAFFFF71DFF401B6428E6D98D
:100B1400032035E2474B5B6803F4C033B3F5004F61
:100B24007FF470AF022393FAA3F3424B19680223B4
:100B340093FAA3F3B3FA83F303F01F03012202FA37
:100B440003F30B4203D0E368934240F01282394826
:100B5400036823F0F8032169F82292FAA2F2B2FAA8
:100B640082F201FA02F213430360236813F0080FC0
:100B740000F08C806369002B60D0012191FAA1F20E
:100B8400B2FA82F22C4B13449B001960FFF7DAFE91
:100B94000546022393FAA3F293FAA3F293FAA3F27B
:100BA400244A516A93FAA3F3B3FA83F303F01F03BD
:100BB400012202FA03F30B4268D1FFF7C3FE401B84
:100BC4000228E6D90320DBE11A48036823F0F8037E
:100BD4002169F82292FAA2F2B2FA82F201FA02F23E
:100BE40013430360C1E7012393FAA3F3B3FA83F336
:100BF40003F1845303F584139B0000221A60FFF76A
:100C0400A1FE0546022393FAA3F30A4B19680223B3
:100C140093FAA3F3B3FA83F303F01F03012202FA56
:100C240003F30B42A1D0FFF78DFE401B0228E9D944
:100C34000320A5E10010024020819010012292FAC5
:100C4400A2F2B2FA82F29C4B13449B0000221A6077
:100C5400FFF778FE0546022393FAA3F293FAA3F270
:100C640093FAA3F2954A516A93FAA3F3B3FA83F37E
:100C740003F01F03012202FA03F30B4206D0FFF72D
:100C840061FE401B0228E6D9032079E1236813F0B2
:100C9400040F00F0A980894BDB6913F0805F20D139
:100CA400864BDA6942F08052DA61DB6903F08053E3
:100CB4000193019B0125824B1B6813F4807F12D0A2
:100CC400A368012B23D073BB03F1804303F50433E2
:100CD4001A6A22F001021A621A6A22F004021A62E3
:100CE4001AE00025E7E7764A136843F4807313603B
:100CF400FFF728FE0646724B1B6813F4807FDFD192
:100D0400FFF720FE801B6428F5D9032038E16B4AE5
:100D1400136A43F001031362A368002B3CD0FFF76E
:100D240011FE06462BE0052B09D0644B1A6A22F00B
:100D340001021A621A6A22F004021A62ECE75F4B9B
:100D44001A6A42F004021A621A6A42F001021A6232
:100D5400E2E75A4B196A022393FAA3F3B3FA83F333
:100D640003F01F03012202FA03F319423BD1FFF7F8
:100D7400E9FD801B41F28833984200F2FC80022393
:100D840093FAA3F293FAA3F3002BE2D1022393FA8A
:100D9400A3F34A4B596ADEE7FFF7D4FD064615E094
:100DA400464B196A022393FAA3F3B3FA83F303F0CD
:100DB4001F03012202FA03F3194214D0FFF7C2FD04
:100DC400801B41F28833984200F2D780022393FAC1
:100DD400A3F293FAA3F3002BE2D1022393FAA3F331
:100DE400364B596ADEE7B5BBA369002B00F0C78018
:100DF400324A526802F00C02082A00F0A080022B4A
:100E04002FD04FF0807393FAA3F3B3FA83F303F173
:100E1400845303F584139B0000221A60FFF792FDAC
:100E240004464FF0007393FAA3F3244B19684FF070
:100E3400007393FAA3F3B3FA83F303F01F030122BD
:100E440002FA03F3194278D0FFF77CFD001B022855
:100E5400E7D9032094E0194AD36923F08053D3617E
:100E6400C2E74FF0807393FAA3F3B3FA83F303F169
:100E7400845303F584139B0000221A60FFF762FD7C
:100E840005464FF0007393FAA3F30C4B19684FF027
:100E9400007393FAA3F3B3FA83F303F01F0301225D
:100EA40002FA03F319420DD0FFF74CFD401B022850
:100EB400E7D9032064E000BF2081901000100240B5
:100EC40000700040334AD36A23F00F03616A0B4376
:100ED400D362536823F47613216AE06901430B4318
:100EE40053604FF0807393FAA3F3B3FA83F303F1DF
:100EF400845303F584139B0001221A60FFF722FD3B
:100F040004464FF0007393FAA3F3224B19684FF091
:100F1400007393FAA3F3B3FA83F303F01F030122DC
:100F240002FA03F3194206D1FFF70CFD001B022855
:100F3400E7D9032024E0002022E0002020E0012B58
:100F440020D0144A5368D06A03F4C031E269914254
:100F54001AD103F47013226A934217D100F00F00E0
:100F6400636A984214D100200AE0012070470120EE
:100F740006E0012004E0032002E0032000E000205A
:100F840002B070BD0120FBE70120F9E70120F7E77B
:100F94000120F5E700100240174B5B6803F00C02D8
:100FA400082A01D01548704703F470114FF47012E9
:100FB40092FAA2F2B2FA82F221FA02F21049885CA1
:100FC4000D4AD26A02F00F020F2191FAA1F1B1FA8F
:100FD40081F1CA400B498A5C13F4803F05D0074B6A
:100FE400B3FBF2F303FB00F07047044BB3FBF2F3E3
:100FF40003FB00F0704700BF0010024000127A00AB
:1010040098180008A8180008002800F0BE8070B5E1
:101014000D460446614B1B6803F007038B420BD259
:101024005E4A136823F007030B431360136803F04D
:1010340007038B4240F0AB80236813F0020F06D005
:10104400574A536823F0F003A1680B4353602368A5
:1010540013F0010F5AD06368012B2DD0022B40D01E
:10106400022292FAA2F24E4A1068022292FAA2F2E4
:10107400B2FA82F202F01F02012101FA02F21042D6
:1010840000F0878046494A6822F0030213434B600C
:10109400FFF758FC0646424B5B6803F00C0362689A
:1010A400B3EB820F32D0FFF74DFC801B41F2883343
:1010B4009842F0D9032067E04FF4003292FAA2F28A
:1010C400374A10684FF4003292FAA2F2B2FA82F26E
:1010D40002F01F02012101FA02F20242D2D10120E0
:1010E40052E04FF0007292FAA2F22D4A10684FF0CB
:1010F400007292FAA2F2B2FA82F202F01F02012105
:1011040001FA02F21042BDD101203DE0234B1B68DD
:1011140003F00703AB420AD9204A136823F00703FC
:101124002B431360136803F00703AB4233D12368E6
:1011340013F0040F06D01A4A536823F4E063E168FD
:101144000B435360236813F0080F07D0144A536805
:1011540023F46053216943EAC1035360FFF71CFF82
:101164000F4B5B6803F0F003F02292FAA2F2B2FA9A
:1011740082F2D3400B4AD35CD8400B4B18600B4B24
:101184001868FFF79BFB002070BD01207047012009
:10119400FAE70120F8E70120F6E700BF002002404B
:1011A40000100240B81800080800002004000020C5
:1011B400014B1868704700BF0800002008B5FFF70E
:1011C400F7FF074B5B6803F4E0634FF4E06292FAC5
:1011D400A2F2B2FA82F2D340024AD35CD84008BDEC
:1011E40000100240C818000808B5FFF7E1FF074BDC
:1011F4005B6803F460534FF4605292FAA2F2B2FABD
:1012040082F2D340024AD35CD84008BD00100240A9
:10121400C8180008F0B583B00446036813F4803F8F
:1012240048D0A14BDB6913F0805F40F021819E4BD5
:10123400DA6942F08052DA61DB6903F0805301938A
:10124400019B0125994B1B6813F4807F00F01281E8
:10125400954B1B6A13F4407322D0626802F4407207
:101264009A421DD09048016A21F440764FF48033AD
:1012740093FAA3F2B2FA82F28D4F3A4492004FF0FD
:10128400010CC2F800C093FAA3F3B3FA83F33B440E
:101294009B0000221A60066211F0010F40F0FF80EB
:1012A400814A136A23F4407361680B431362002D6F
:1012B40040F02381236813F0010F06D07A4A136BA0
:1012C40023F00303A1680B431363236813F0020F95
:1012D40006D0754A136B23F44033E1680B43136360
:1012E400236813F0040F06D06F4A136B23F44023D2
:1012F40021690B431363236813F0200F06D06A4A55
:10130400136B23F01003E1690B431363236813F495
:10131400003F06D0644A536823F48003616D0B4395
:101324005360236813F0400F06D05F4A136B23F019
:101334002003216A0B431363236813F4802F06D020
:10134400594A136B23F04003616A0B431363236808
:1013540013F0080F06D0544A136B23F44013616949
:101364000B431363236813F0100F06D04E4A136B1C
:1013740023F44003A1690B431363236813F4007F30
:1013840006D0494A536823F40003216B0B4353608E
:10139400236813F0800F06D0434AD36A23F4F8730A
:1013A400A16A0B43D362236813F4807F06D03E4ABC
:1013B400D36A23F47853E16A0B43D362236813F4AA
:1013C400805F06D0384A136B23F48073616B0B4340
:1013D4001363236813F4005F06D0334A136B23F4BA
:1013E4000073216C0B431363236813F4801F06D02E
:1013F4002D4A136B23F08073A16B0B431363236893
:1014040013F4001F06D0284A136B23F00073E16B1A
:101414000B431363236813F4800F06D0224A136B23
:1014240023F48063616C0B431363236813F4000F8C
:1014340006D01D4A136B23F40063A16C0B431363A2
:10144400236813F0807F06D0174A136B23F40053EC
:10145400E16C0B431363236813F0007F54D0124AEA
:10146400136B23F40043216D0B43136300204CE002
:101474000025E7E60D4A136843F480731360FFF711
:1014840061FA0646094B1B6813F4807F7FF4E0AED3
:10149400FFF758FA801B6428F4D9032035E0FFF7DE
:1014A40051FA06461CE000BF0010024000700040E4
:1014B40000819010164B196A022393FAA3F3B3FA2E
:1014C40083F303F01F03012202FA03F30B427FF4B8
:1014D400E7AEFFF737FA801B41F28833984211D800
:1014E400022393FAA3F293FAA3F3002BE2D102238B
:1014F40093FAA3F3064B596ADEE7D36923F08053CA
:10150400D361D7E6032000E0002003B0F0BD00BFA4
:1015140000100240F0B583B0002362E085685E00ED
:101524000324B44025EA0405CC68B4402C43846009
:10153400446824EA0C0C4C68C4F300149C4044EA4C
:101544000C0444605EE0DD08083550F8256003F0C3
:1015540007044FEA840C0F2404FA0CF426EA040E60
:101564000C6904FA0CF444EA0E0440F8254060E0E7
:10157400062400E0002404FA0EF42C430CF1020CBF
:10158400584D45F82C40584C2568D44325EA0206AA
:101594004F6817F4803F01D042EA0506524D2E6091
:1015A4006D6804EA05064F6817F4003F01D042EA6B
:1015B40005064D4D6E60AD6804EA05064F6817F4E4
:1015C400801F01D042EA0506474DAE60ED682C400D
:1015D4004E6816F4001F01D042EA0504424AD46062
:1015E40001330A6832FA03F47AD04FF0010C0CFA92
:1015F40003FC1CEA0202F3D04C6804F00304013C2F
:10160400012C8BD94C6804F00304032C0CD0C4685F
:101614005D004FF0030C0CFA05FC24EA0C0C8C68FA
:10162400AC4044EA0C04C4604C6804F00304022C8B
:1016340089D004684FEA430E4FF0030C0CFA0EFCF9
:1016440024EA0C0C4C6804F0030404FA0EF444EA93
:101654000C0404604C6814F4403FC1D0234CA569C9
:1016640045F00105A561A46904F001040194019CFD
:101674004FEA930C0CF102051A4C54F8255003F070
:1016840003044FEA840E0F2404FA0EF425EA040539
:10169400B0F1904F3FF46EAF154CA04216D004F554
:1016A4008064A04214D004F58064A04212D004F5F2
:1016B4008064A04210D004F58064A0420ED004F5EA
:1016C4008064A0423FF454AF072454E7012452E756
:1016D400022450E703244EE704244CE705244AE798
:1016E40003B0F0BD000001400004014000100240BE
:1016F400000400480AB181617047816270470000AC
:10170400074AD36823F4E0631B041B0C000200F4B3
:10171400E060034343F0BF6343F40033D360704796
:1017240000ED00E000B5194BDB68C3F30223C3F1FD
:10173400070CBCF1040F28BF4FF0040C03F1040E96
:10174400BEF1060F18D9033B4FF0FF3E0EFA0CFC16
:1017540021EA0C0199400EFA03F322EA0303194328
:1017640000280BDB0901C9B200F1604000F56140BB
:1017740080F800135DF804FB0023E5E700F00F0098
:101784000901C9B2024B1954F4E700BF00ED00E0AF
:1017940014ED00E00138B0F1807F0BD24FF0E0236C
:1017A4005861054AF02182F823100020986107222D
:1017B4001A6170470120704700ED00E0034AD2F837
:1017C400883043F47003C2F88830704700ED00E0BD
:1017D400DFF834D00D480E490E4A002302E0D458F5
:1017E400C4500433C4188C42F9D30B4A0B4C002365
:1017F40001E013600432A242FBD3FFF7DFFF00F0E5
:1018040011F8FEF794FDFEE700000120000000201F
:101814000C000020D81800080C000020B0000020A4
:10182400FEE7000070B50D4D0D4C641BA41000269E
:10183400A64209D10B4D0C4C00F020F8641BA410F7
:101844000026A64205D170BD55F8043B98470136E1
:10185400EEE755F8043B98470136F2E7D018000844
:10186400D0180008D0180008D41800080244034611
:10187400934200D1704703F8011BF9E7F8B500BFA4
:10188400F8BC08BC9E467047F8B500BFF8BC08BC5D
:041894009E467047B5
:1018980002030405060708090A0B0C0D0E0F1010A9
:1018A8000102030405060708090A0B0C0D0E0F10A8
:1018B80000000000000000000102030406070809F8
:0818C80000000000010203040E
:0418D000B901000852
:0418D4009501000872
:0C18D800010000001000000000127A0067
:04000005080017D503
:00000001FF
